{
  "contractName": "BlockPrint",
  "abi": [
    {
      "anonymous": false,
      "inputs": [
        {
          "indexed": true,
          "internalType": "address",
          "name": "oldOwner",
          "type": "address"
        },
        {
          "indexed": true,
          "internalType": "address",
          "name": "newOwner",
          "type": "address"
        }
      ],
      "name": "OwnerSet",
      "type": "event"
    },
    {
      "inputs": [
        {
          "internalType": "address",
          "name": "newOwner",
          "type": "address"
        }
      ],
      "name": "changeOwner",
      "outputs": [],
      "stateMutability": "nonpayable",
      "type": "function"
    },
    {
      "inputs": [],
      "name": "getOwner",
      "outputs": [
        {
          "internalType": "address",
          "name": "",
          "type": "address"
        }
      ],
      "stateMutability": "view",
      "type": "function",
      "constant": true
    },
    {
      "inputs": [
        {
          "internalType": "string",
          "name": "_tokenURL",
          "type": "string"
        }
      ],
      "name": "mintCertificate",
      "outputs": [
        {
          "internalType": "uint256",
          "name": "certificateId",
          "type": "uint256"
        }
      ],
      "stateMutability": "nonpayable",
      "type": "function"
    },
    {
      "inputs": [
        {
          "internalType": "uint256",
          "name": "certificateId",
          "type": "uint256"
        }
      ],
      "name": "fetchCertificate",
      "outputs": [
        {
          "internalType": "string",
          "name": "tokenURL",
          "type": "string"
        }
      ],
      "stateMutability": "view",
      "type": "function",
      "constant": true
    }
  ],
  "bytecode": "0x608060405234801561001057600080fd5b50336000806101000a81548173ffffffffffffffffffffffffffffffffffffffff021916908373ffffffffffffffffffffffffffffffffffffffff16021790555060008054906101000a900473ffffffffffffffffffffffffffffffffffffffff1673ffffffffffffffffffffffffffffffffffffffff16600073ffffffffffffffffffffffffffffffffffffffff167f342827c97908e5e2f71151c08502a66d44b6f758e3ac2f1de95f02eb95f0a73560405160405180910390a3610a8d806100db6000396000f3fe608060405234801561001057600080fd5b506004361061004c5760003560e01c806301ac022614610051578063893d20e814610081578063a6f9dae11461009f578063e3a88109146100bb575b600080fd5b61006b6004803603810190610066919061063e565b6100eb565b6040516100789190610767565b60405180910390f35b610089610190565b604051610096919061074c565b60405180910390f35b6100b960048036038101906100b491906105d4565b6101b9565b005b6100d560048036038101906100d091906105fd565b610304565b6040516100e291906107c9565b60405180910390f35b606060036000838152602001908152602001600020805461010b906108df565b80601f0160208091040260200160405190810160405280929190818152602001828054610137906108df565b80156101845780601f1061015957610100808354040283529160200191610184565b820191906000526020600020905b81548152906001019060200180831161016757829003601f168201915b50505050509050919050565b60008060009054906101000a900473ffffffffffffffffffffffffffffffffffffffff16905090565b60008054906101000a900473ffffffffffffffffffffffffffffffffffffffff1673ffffffffffffffffffffffffffffffffffffffff163373ffffffffffffffffffffffffffffffffffffffff1614610247576040517f08c379a000000000000000000000000000000000000000000000000000000000815260040161023e90610789565b60405180910390fd5b8073ffffffffffffffffffffffffffffffffffffffff1660008054906101000a900473ffffffffffffffffffffffffffffffffffffffff1673ffffffffffffffffffffffffffffffffffffffff167f342827c97908e5e2f71151c08502a66d44b6f758e3ac2f1de95f02eb95f0a73560405160405180910390a3806000806101000a81548173ffffffffffffffffffffffffffffffffffffffff021916908373ffffffffffffffffffffffffffffffffffffffff16021790555050565b60008060009054906101000a900473ffffffffffffffffffffffffffffffffffffffff1673ffffffffffffffffffffffffffffffffffffffff163373ffffffffffffffffffffffffffffffffffffffff1614610395576040517f08c379a000000000000000000000000000000000000000000000000000000000815260040161038c90610789565b60405180910390fd5b6002826040516103a59190610735565b908152602001604051809103902060009054906101000a900460ff1615610401576040517f08c379a00000000000000000000000000000000000000000000000000000000081526004016103f8906107a9565b60405180910390fd5b61040b600161047b565b90508160036000838152602001908152602001600020908051906020019061043492919061049f565b5060016002836040516104479190610735565b908152602001604051809103902060006101000a81548160ff0219169083151502179055506104766001610489565b919050565b600081600001549050919050565b6001816000016000828254019250508190555050565b8280546104ab906108df565b90600052602060002090601f0160209004810192826104cd5760008555610514565b82601f106104e657805160ff1916838001178555610514565b82800160010185558215610514579182015b828111156105135782518255916020019190600101906104f8565b5b5090506105219190610525565b5090565b5b8082111561053e576000816000905550600101610526565b5090565b600061055561055084610809565b6107e4565b90508281526020810184848401111561056d57600080fd5b61057884828561089d565b509392505050565b60008135905061058f81610a29565b92915050565b600082601f8301126105a657600080fd5b81356105b6848260208601610542565b91505092915050565b6000813590506105ce81610a40565b92915050565b6000602082840312156105e657600080fd5b60006105f484828501610580565b91505092915050565b60006020828403121561060f57600080fd5b600082013567ffffffffffffffff81111561062957600080fd5b61063584828501610595565b91505092915050565b60006020828403121561065057600080fd5b600061065e848285016105bf565b91505092915050565b61067081610861565b82525050565b60006106818261083a565b61068b8185610845565b935061069b8185602086016108ac565b6106a4816109a0565b840191505092915050565b60006106ba8261083a565b6106c48185610856565b93506106d48185602086016108ac565b80840191505092915050565b60006106ed601383610845565b91506106f8826109b1565b602082019050919050565b6000610710602183610845565b915061071b826109da565b604082019050919050565b61072f81610893565b82525050565b600061074182846106af565b915081905092915050565b60006020820190506107616000830184610667565b92915050565b600060208201905081810360008301526107818184610676565b905092915050565b600060208201905081810360008301526107a2816106e0565b9050919050565b600060208201905081810360008301526107c281610703565b9050919050565b60006020820190506107de6000830184610726565b92915050565b60006107ee6107ff565b90506107fa8282610911565b919050565b6000604051905090565b600067ffffffffffffffff82111561082457610823610971565b5b61082d826109a0565b9050602081019050919050565b600081519050919050565b600082825260208201905092915050565b600081905092915050565b600061086c82610873565b9050919050565b600073ffffffffffffffffffffffffffffffffffffffff82169050919050565b6000819050919050565b82818337600083830152505050565b60005b838110156108ca5780820151818401526020810190506108af565b838111156108d9576000848401525b50505050565b600060028204905060018216806108f757607f821691505b6020821081141561090b5761090a610942565b5b50919050565b61091a826109a0565b810181811067ffffffffffffffff8211171561093957610938610971565b5b80604052505050565b7f4e487b7100000000000000000000000000000000000000000000000000000000600052602260045260246000fd5b7f4e487b7100000000000000000000000000000000000000000000000000000000600052604160045260246000fd5b6000601f19601f8301169050919050565b7f43616c6c6572206973206e6f74206f776e657200000000000000000000000000600082015250565b7f54686520436572746966696361746520697320616c72656164792073746f726560008201527f6400000000000000000000000000000000000000000000000000000000000000602082015250565b610a3281610861565b8114610a3d57600080fd5b50565b610a4981610893565b8114610a5457600080fd5b5056fea2646970667358221220f3a4484f53e6d148bcfad97775bdf7923b6a82d8a7023b86729964ec287310ec64736f6c63430008020033",
  "immutableReferences": {},
  "source": "// SPDX-License-Identifier: MIT\npragma solidity ^0.8.2;\n\nimport \"./Owner.sol\";\nimport \"@openzeppelin/contracts/utils/Counters.sol\";\n\ncontract BlockPrint is Owner {\n    using Counters for Counters.Counter;\n\n    Counters.Counter tokenID;\n    mapping(string => bool) private _doesCertificateExist;\n    mapping(uint256 => string) private _idToURL;\n\n    function mintCertificate(string memory _tokenURL)\n        public\n        isOwner\n        returns (uint256 certificateId)\n    {\n        require(\n            !_doesCertificateExist[_tokenURL],\n            \"The Certificate is already stored\"\n        );\n        certificateId = tokenID.current();\n        _idToURL[certificateId] = _tokenURL;\n        _doesCertificateExist[_tokenURL] = true;\n        tokenID.increment();\n    }\n\n    function fetchCertificate(uint256 certificateId)\n        public\n        view\n        returns (string memory tokenURL)\n    {\n        tokenURL = _idToURL[certificateId];\n    }\n}\n",
  "sourcePath": "/home/ashish/projects/blockPrint/contracts/BlockPrint.sol",
  "compiler": {
    "name": "solc",
    "version": "0.8.2+commit.661d1103.Emscripten.clang"
  },
  "schemaVersion": "3.4.4",
  "updatedAt": "2022-01-09T17:53:06.440Z",
  "networkType": "ethereum",
  "devdoc": {
    "kind": "dev",
    "methods": {
      "changeOwner(address)": {
        "details": "Change owner",
        "params": {
          "newOwner": "address of new owner"
        }
      },
      "getOwner()": {
        "details": "Return owner address",
        "returns": {
          "_0": "address of owner"
        }
      }
    },
    "version": 1
  },
  "userdoc": {
    "kind": "user",
    "methods": {},
    "version": 1
  }
}